{
  "transactions": [
    {
      "hash": "0x24fc9ea013fb9b840039ac911aeea097f9b64c08d05e7421000018a16c7d4ac6",
      "transactionType": "CREATE",
      "contractName": "DSPC",
      "contractAddress": "0x4b5b12ac1bc588438dcb08c28049e0956a589f0b",
      "function": null,
      "arguments": [
        "0xc62B866a8faA6AEff8B73d55B6F73B64b74e4fAd",
        "0x0000000000000000000000000000000000000000",
        "0x0000000000000000000000000000000000000000",
        "0x0C2302276fe7cF508bEBEcf45e5b1c33e26f85F1"
      ],
      "transaction": {
        "from": "0x195a7d8610edd06e0c27c006b6970319133cb19a",
        "gas": "0x1acacf",
        "value": "0x0",
        "input": "0x610100604052348015610010575f80fd5b5060405161189338038061189383398101604081905261002f916100aa565b6001600160a01b0380851660805283811660a05282811660c052811660e052335f8181526020819052604080822060019055517fdd0e34038ac38b2a1ce960229778ac48a8719bc900b6c4f8d0475c6e8b385a609190a2505050506100fb565b80516001600160a01b03811681146100a5575f80fd5b919050565b5f805f80608085870312156100bd575f80fd5b6100c68561008f565b93506100d46020860161008f565b92506100e26040860161008f565b91506100f06060860161008f565b905092959194509250565b60805160a05160c05160e0516117036101905f395f818161010f01528181610bed01528181610d0d01528181610e380152610fa101525f81816101e201528181610d3c0152818161112501526111b101525f818161018e01528181610c1c0152818161102301526110af01525f818161028d015281816103e701528181610dae01528181611200015261128701526117035ff3fe608060405234801561000f575f80fd5b5060043610610106575f3560e01c806365c4ce7a1161009e5780639c3674fc1161006e5780639c3674fc146102e15780639c52a7f114610300578063bf353dbb14610313578063cfc4af5514610332578063f29c29c414610364575f80fd5b806365c4ce7a1461026257806365fae35e1461027557806384718d891461028857806389afb88a146102af575f80fd5b80634ba2363a116100d95780634ba2363a1461018957806353a7d8cd146101b057806358b8f19c146101dd578063646544a014610204575f80fd5b806308b368701461010a5780631a0b287e1461014e57806329ae811414610163578063474d857f14610176575b5f80fd5b6101317f000000000000000000000000000000000000000000000000000000000000000081565b6040516001600160a01b0390911681526020015b60405180910390f35b61016161015c366004611503565b610377565b005b61016161017136600461152c565b6106c6565b61016161018436600461154c565b6108ac565b6101317f000000000000000000000000000000000000000000000000000000000000000081565b6101cf6101be3660046115bb565b60016020525f908152604090205481565b604051908152602001610145565b6101317f000000000000000000000000000000000000000000000000000000000000000081565b61023d6102123660046115e8565b60026020525f908152604090205461ffff808216916201000081048216916401000000009091041683565b6040805161ffff94851681529284166020840152921691810191909152606001610145565b6101616102703660046115bb565b61133b565b6101616102833660046115bb565b6113ac565b6101317f000000000000000000000000000000000000000000000000000000000000000081565b6003546102c990600160481b90046001600160801b031681565b6040516001600160801b039091168152602001610145565b6003546102ee9060ff1681565b60405160ff9091168152602001610145565b61016161030e3660046115bb565b61141e565b6101cf6103213660046115bb565b5f6020819052908152604090205481565b60035461034b90610100900467ffffffffffffffff1681565b60405167ffffffffffffffff9091168152602001610145565b6101616103723660046115bb565b61148f565b335f908152602081905260409020546001146103ae5760405162461bcd60e51b81526004016103a5906115ff565b60405180910390fd5b82622229a960e91b141580156103ca5750826229a9a960e91b14155b156104ab57604051636cb1c69b60e11b8152600481018490525f907f00000000000000000000000000000000000000000000000000000000000000006001600160a01b03169063d9638d36906024016040805180830381865afa158015610433573d5f803e3d5ffd5b505050506040513d601f19601f82011682018060405250810190610457919061162c565b5090505f81116104a95760405162461bcd60e51b815260206004820152601860248201527f445350432f696c6b2d6e6f742d696e697469616c697a6564000000000000000060448201526064016103a5565b505b61ffff8111156104f25760405162461bcd60e51b8152602060048201526012602482015271445350432f696e76616c69642d76616c756560701b60448201526064016103a5565b816236b4b760e91b0361057b575f8381526002602052604090205462010000900461ffff1681111561055a5760405162461bcd60e51b8152602060048201526011602482015270088a6a0865edad2dc5ae8dede5ad0d2ced607b1b60448201526064016103a5565b5f838152600260205260409020805461ffff191661ffff8316179055610686565b81620dac2f60eb1b03610604575f8381526002602052604090205461ffff168110156105dc5760405162461bcd60e51b815260206004820152601060248201526f445350432f6d61782d746f6f2d6c6f7760801b60448201526064016103a5565b5f838152600260205260409020805463ffff000019166201000061ffff841602179055610686565b81630737465760e41b0361063e575f838152600260205260409020805465ffff00000000191664010000000061ffff841602179055610686565b60405162461bcd60e51b815260206004820152601c60248201527f445350432f66696c652d756e7265636f676e697a65642d706172616d0000000060448201526064016103a5565b81837f851aa1caf4888170ad8875449d18f0f512fd6deb2a6571ea1a41fb9f95acbcd1836040516106b991815260200190565b60405180910390a3505050565b335f908152602081905260409020546001146106f45760405162461bcd60e51b81526004016103a5906115ff565b816218985960ea1b036107675780158061070e5750806001145b6107535760405162461bcd60e51b8152602060048201526016602482015275445350432f696e76616c69642d6261642d76616c756560501b60448201526064016103a5565b6003805460ff191660ff831617905561086e565b816274617560e81b036107ec5767ffffffffffffffff8111156107c55760405162461bcd60e51b8152602060048201526016602482015275445350432f696e76616c69642d7461752d76616c756560501b60448201526064016103a5565b6003805468ffffffffffffffff00191661010067ffffffffffffffff84160217905561086e565b8162746f6360e81b0361063e576001600160801b038111156108495760405162461bcd60e51b8152602060048201526016602482015275445350432f696e76616c69642d746f632d76616c756560501b60448201526064016103a5565b60038054600160481b600160c81b031916600160481b6001600160801b038416021790555b817fe986e40cc8c151830d4f61050f4fb2e4add8567caad2d5f5496f9158e91fe4c7826040516108a091815260200190565b60405180910390a25050565b335f90815260016020819052604090912054146109025760405162461bcd60e51b81526020600482015260146024820152732229a82197b737ba16b330b1b4b634ba30ba37b960611b60448201526064016103a5565b60035460ff161561094a5760405162461bcd60e51b81526020600482015260126024820152711114d410cbdb5bd91d5b194b5a185b1d195960721b60448201526064016103a5565b8061098a5760405162461bcd60e51b815260206004820152601060248201526f088a6a0865ecadae0e8f25ac4c2e8c6d60831b60448201526064016103a5565b6003546109b690600160481b81046001600160801b031690610100900467ffffffffffffffff16611662565b6001600160801b03164210156109ff5760405162461bcd60e51b815260206004820152600e60248201526d445350432f746f6f2d6561726c7960901b60448201526064016103a5565b60038054600160481b600160c81b031916600160481b426001600160801b0316021790555f805b82811015611335575f848483818110610a4157610a41611689565b9050604002015f01359050828111610a9b5760405162461bcd60e51b815260206004820152601960248201527f445350432f757064617465732d6f75742d6f662d6f726465720000000000000060448201526064016103a5565b8092505f858584818110610ab157610ab1611689565b5f858152600260209081526040918290208251606081018452905461ffff808216835262010000820481168385015264010000000090910416818401819052939092029490940190930135935015159050610b4e5760405162461bcd60e51b815260206004820152601860248201527f445350432f726174652d6e6f742d636f6e66696775726564000000000000000060448201526064016103a5565b805161ffff16821015610b945760405162461bcd60e51b815260206004820152600e60248201526d2229a82197b132b637bb96b6b4b760911b60448201526064016103a5565b806020015161ffff16821115610bdd5760405162461bcd60e51b815260206004820152600e60248201526d088a6a0865ec2c4deecca5adac2f60931b60448201526064016103a5565b5f83622229a960e91b03610cfe577f00000000000000000000000000000000000000000000000000000000000000006001600160a01b031663538af0377f00000000000000000000000000000000000000000000000000000000000000006001600160a01b031663487bf0826040518163ffffffff1660e01b8152600401602060405180830381865afa158015610c76573d5f803e3d5ffd5b505050506040513d601f19601f82011682018060405250810190610c9a919061169d565b6040518263ffffffff1660e01b8152600401610cb891815260200190565b602060405180830381865afa158015610cd3573d5f803e3d5ffd5b505050506040513d601f19601f82011682018060405250810190610cf7919061169d565b9050610ead565b836229a9a960e91b03610d96577f00000000000000000000000000000000000000000000000000000000000000006001600160a01b031663538af0377f00000000000000000000000000000000000000000000000000000000000000006001600160a01b03166303607ceb6040518163ffffffff1660e01b8152600401602060405180830381865afa158015610c76573d5f803e3d5ffd5b604051636cb1c69b60e11b8152600481018590525f907f00000000000000000000000000000000000000000000000000000000000000006001600160a01b03169063d9638d36906024016040805180830381865afa158015610dfa573d5f803e3d5ffd5b505050506040513d601f19601f82011682018060405250810190610e1e919061162c565b5060405163538af03760e01b8152600481018290529091507f00000000000000000000000000000000000000000000000000000000000000006001600160a01b03169063538af03790602401602060405180830381865afa158015610e85573d5f803e3d5ffd5b505050506040513d601f19601f82011682018060405250810190610ea9919061169d565b9150505b815161ffff168110801590610eca5750816020015161ffff168111155b610f165760405162461bcd60e51b815260206004820152601760248201527f445350432f726174652d6f75742d6f662d626f756e647300000000000000000060448201526064016103a5565b5f818411610f2d57610f2884836116b4565b610f37565b610f3782856116b4565b9050826040015161ffff16811115610f895760405162461bcd60e51b81526020600482015260156024820152740445350432f64656c74612d61626f76652d7374657605c1b60448201526064016103a5565b604051630c33fe8160e21b8152600481018590525f907f00000000000000000000000000000000000000000000000000000000000000006001600160a01b0316906330cffa0490602401602060405180830381865afa158015610fee573d5f803e3d5ffd5b505050506040513d601f19601f82011682018060405250810190611012919061169d565b905085622229a960e91b03611116577f00000000000000000000000000000000000000000000000000000000000000006001600160a01b0316639f678cca6040518163ffffffff1660e01b81526004015f604051808303815f87803b158015611079575f80fd5b505af115801561108b573d5f803e3d5ffd5b5050604051630a6ba04560e21b8152623239b960e91b6004820152602481018490527f00000000000000000000000000000000000000000000000000000000000000006001600160a01b031692506329ae811491506044015b5f604051808303815f87803b1580156110fb575f80fd5b505af115801561110d573d5f803e3d5ffd5b505050506112e9565b856229a9a960e91b036111ea577f00000000000000000000000000000000000000000000000000000000000000006001600160a01b0316639f678cca6040518163ffffffff1660e01b81526004015f604051808303815f87803b15801561117b575f80fd5b505af115801561118d573d5f803e3d5ffd5b5050604051630a6ba04560e21b81526239b9b960e91b6004820152602481018490527f00000000000000000000000000000000000000000000000000000000000000006001600160a01b031692506329ae811491506044016110e4565b60405163089c54b560e31b8152600481018790527f00000000000000000000000000000000000000000000000000000000000000006001600160a01b0316906344e2a5a8906024015f604051808303815f87803b158015611249575f80fd5b505af115801561125b573d5f803e3d5ffd5b5050604051630d05943f60e11b815260048101899052636475747960e01b6024820152604481018490527f00000000000000000000000000000000000000000000000000000000000000006001600160a01b03169250631a0b287e91506064015f604051808303815f87803b1580156112d2575f80fd5b505af11580156112e4573d5f803e3d5ffd5b505050505b857f28e3246f80515f5c1ed987b133ef2f193439b25acba6a5e69f219e896fc9d1798660405161131b91815260200190565b60405180910390a2505060019094019350610a2692505050565b50505050565b335f908152602081905260409020546001146113695760405162461bcd60e51b81526004016103a5906115ff565b6001600160a01b0381165f81815260016020526040808220829055517f12fdafd291eb287a54e3416070923d22aa5072f5ee04c4fb8361615e7508a37c9190a250565b335f908152602081905260409020546001146113da5760405162461bcd60e51b81526004016103a5906115ff565b6001600160a01b0381165f8181526020819052604080822060019055517fdd0e34038ac38b2a1ce960229778ac48a8719bc900b6c4f8d0475c6e8b385a609190a250565b335f9081526020819052604090205460011461144c5760405162461bcd60e51b81526004016103a5906115ff565b6001600160a01b0381165f81815260208190526040808220829055517f184450df2e323acec0ed3b5c7531b81f9b4cdef7914dfd4c0a4317416bb5251b9190a250565b335f908152602081905260409020546001146114bd5760405162461bcd60e51b81526004016103a5906115ff565b6001600160a01b0381165f81815260016020819052604080832091909155517f6ffc0fabf0709270e42087e84a3bfc36041d3b281266d04ae1962185092fb2449190a250565b5f805f60608486031215611515575f80fd5b505081359360208301359350604090920135919050565b5f806040838503121561153d575f80fd5b50508035926020909101359150565b5f806020838503121561155d575f80fd5b823567ffffffffffffffff80821115611574575f80fd5b818501915085601f830112611587575f80fd5b813581811115611595575f80fd5b8660208260061b85010111156115a9575f80fd5b60209290920196919550909350505050565b5f602082840312156115cb575f80fd5b81356001600160a01b03811681146115e1575f80fd5b9392505050565b5f602082840312156115f8575f80fd5b5035919050565b6020808252601390820152721114d410cbdb9bdd0b585d5d1a1bdc9a5e9959606a1b604082015260600190565b5f806040838503121561163d575f80fd5b505080516020909101519092909150565b634e487b7160e01b5f52601160045260245ffd5b6001600160801b038181168382160190808211156116825761168261164e565b5092915050565b634e487b7160e01b5f52603260045260245ffd5b5f602082840312156116ad575f80fd5b5051919050565b818103818111156116c7576116c761164e565b9291505056fea2646970667358221220f85622963b9bb1dda193307640d897bee8947f5db093743fbd9d58804a55ed8c64736f6c63430008190033000000000000000000000000c62b866a8faa6aeff8b73d55b6f73b64b74e4fad000000000000000000000000000000000000000000000000000000000000000000000000000000000000000000000000000000000000000000000000000000000000000000000000000000000c2302276fe7cf508bebecf45e5b1c33e26f85f1",
        "nonce": "0xc",
        "chainId": "0xaa36a7"
      },
      "additionalContracts": [],
      "isFixedGasLimit": false
    },
    {
      "hash": "0x86dbd080afe81a3c35eae6d153c75c5679724b03d58415e5c55eb5c50d2b7a71",
      "transactionType": "CALL",
      "contractName": "DSPC",
      "contractAddress": "0x4b5b12ac1bc588438dcb08c28049e0956a589f0b",
      "function": "file(bytes32,uint256)",
      "arguments": [
        "0x7461750000000000000000000000000000000000000000000000000000000000",
        "3600"
      ],
      "transaction": {
        "from": "0x195a7d8610edd06e0c27c006b6970319133cb19a",
        "to": "0x4b5b12ac1bc588438dcb08c28049e0956a589f0b",
        "gas": "0x10fc2",
        "value": "0x0",
        "input": "0x29ae811474617500000000000000000000000000000000000000000000000000000000000000000000000000000000000000000000000000000000000000000000000e10",
        "nonce": "0xd",
        "chainId": "0xaa36a7"
      },
      "additionalContracts": [],
      "isFixedGasLimit": false
    },
    {
      "hash": "0xe2a7462a27857e3e36c84c0608128b11e001a94876adf15a09ab7bf756e96968",
      "transactionType": "CALL",
      "contractName": "DSPC",
      "contractAddress": "0x4b5b12ac1bc588438dcb08c28049e0956a589f0b",
      "function": "file(bytes32,bytes32,uint256)",
      "arguments": [
        "0x4554482d41000000000000000000000000000000000000000000000000000000",
        "0x6d61780000000000000000000000000000000000000000000000000000000000",
        "30000"
      ],
      "transaction": {
        "from": "0x195a7d8610edd06e0c27c006b6970319133cb19a",
        "to": "0x4b5b12ac1bc588438dcb08c28049e0956a589f0b",
        "gas": "0x1404a",
        "value": "0x0",
        "input": "0x1a0b287e4554482d410000000000000000000000000000000000000000000000000000006d617800000000000000000000000000000000000000000000000000000000000000000000000000000000000000000000000000000000000000000000007530",
        "nonce": "0xe",
        "chainId": "0xaa36a7"
      },
      "additionalContracts": [],
      "isFixedGasLimit": false
    },
    {
      "hash": "0x7a451146934fb5bf71c84a9795c8c38f46e915f483f79a89d97aa7b4c1989a8e",
      "transactionType": "CALL",
      "contractName": "DSPC",
      "contractAddress": "0x4b5b12ac1bc588438dcb08c28049e0956a589f0b",
      "function": "file(bytes32,bytes32,uint256)",
      "arguments": [
        "0x4554482d41000000000000000000000000000000000000000000000000000000",
        "0x6d696e0000000000000000000000000000000000000000000000000000000000",
        "0"
      ],
      "transaction": {
        "from": "0x195a7d8610edd06e0c27c006b6970319133cb19a",
        "to": "0x4b5b12ac1bc588438dcb08c28049e0956a589f0b",
        "gas": "0xce51",
        "value": "0x0",
        "input": "0x1a0b287e4554482d410000000000000000000000000000000000000000000000000000006d696e00000000000000000000000000000000000000000000000000000000000000000000000000000000000000000000000000000000000000000000000000",
        "nonce": "0xf",
        "chainId": "0xaa36a7"
      },
      "additionalContracts": [],
      "isFixedGasLimit": false
    },
    {
      "hash": "0xa31e19b47d829d78bfbf9679f48a2807fc0b5cefbb05cc0c68c9a8d28b08fbba",
      "transactionType": "CALL",
      "contractName": "DSPC",
      "contractAddress": "0x4b5b12ac1bc588438dcb08c28049e0956a589f0b",
      "function": "file(bytes32,bytes32,uint256)",
      "arguments": [
        "0x4554482d41000000000000000000000000000000000000000000000000000000",
        "0x7374657000000000000000000000000000000000000000000000000000000000",
        "100"
      ],
      "transaction": {
        "from": "0x195a7d8610edd06e0c27c006b6970319133cb19a",
        "to": "0x4b5b12ac1bc588438dcb08c28049e0956a589f0b",
        "gas": "0xd153",
        "value": "0x0",
        "input": "0x1a0b287e4554482d4100000000000000000000000000000000000000000000000000000073746570000000000000000000000000000000000000000000000000000000000000000000000000000000000000000000000000000000000000000000000064",
        "nonce": "0x10",
        "chainId": "0xaa36a7"
      },
      "additionalContracts": [],
      "isFixedGasLimit": false
    },
    {
      "hash": "0xaf2f3cec5d64e842289bc2fbb9da143ae77d82c5dd05d221e9dcae2710dd391b",
      "transactionType": "CALL",
      "contractName": "DSPC",
      "contractAddress": "0x4b5b12ac1bc588438dcb08c28049e0956a589f0b",
      "function": "file(bytes32,bytes32,uint256)",
      "arguments": [
        "0x4554482d42000000000000000000000000000000000000000000000000000000",
        "0x6d61780000000000000000000000000000000000000000000000000000000000",
        "30000"
      ],
      "transaction": {
        "from": "0x195a7d8610edd06e0c27c006b6970319133cb19a",
        "to": "0x4b5b12ac1bc588438dcb08c28049e0956a589f0b",
        "gas": "0x1404a",
        "value": "0x0",
        "input": "0x1a0b287e4554482d420000000000000000000000000000000000000000000000000000006d617800000000000000000000000000000000000000000000000000000000000000000000000000000000000000000000000000000000000000000000007530",
        "nonce": "0x11",
        "chainId": "0xaa36a7"
      },
      "additionalContracts": [],
      "isFixedGasLimit": false
    },
    {
      "hash": "0xea0b232182e55479505b8ac9b1f7ce66950e00f318c7ab0e9f80c07c5fefdc9e",
      "transactionType": "CALL",
      "contractName": "DSPC",
      "contractAddress": "0x4b5b12ac1bc588438dcb08c28049e0956a589f0b",
      "function": "file(bytes32,bytes32,uint256)",
      "arguments": [
        "0x4554482d42000000000000000000000000000000000000000000000000000000",
        "0x6d696e0000000000000000000000000000000000000000000000000000000000",
        "0"
      ],
      "transaction": {
        "from": "0x195a7d8610edd06e0c27c006b6970319133cb19a",
        "to": "0x4b5b12ac1bc588438dcb08c28049e0956a589f0b",
        "gas": "0xce51",
        "value": "0x0",
        "input": "0x1a0b287e4554482d420000000000000000000000000000000000000000000000000000006d696e00000000000000000000000000000000000000000000000000000000000000000000000000000000000000000000000000000000000000000000000000",
        "nonce": "0x12",
        "chainId": "0xaa36a7"
      },
      "additionalContracts": [],
      "isFixedGasLimit": false
    },
    {
      "hash": "0xe1aa43540ac44f85a87fc7c63dc900baaf7e0186015616acbeba4c8de43985be",
      "transactionType": "CALL",
      "contractName": "DSPC",
      "contractAddress": "0x4b5b12ac1bc588438dcb08c28049e0956a589f0b",
      "function": "file(bytes32,bytes32,uint256)",
      "arguments": [
        "0x4554482d42000000000000000000000000000000000000000000000000000000",
        "0x7374657000000000000000000000000000000000000000000000000000000000",
        "100"
      ],
      "transaction": {
        "from": "0x195a7d8610edd06e0c27c006b6970319133cb19a",
        "to": "0x4b5b12ac1bc588438dcb08c28049e0956a589f0b",
        "gas": "0xd153",
        "value": "0x0",
        "input": "0x1a0b287e4554482d4200000000000000000000000000000000000000000000000000000073746570000000000000000000000000000000000000000000000000000000000000000000000000000000000000000000000000000000000000000000000064",
        "nonce": "0x13",
        "chainId": "0xaa36a7"
      },
      "additionalContracts": [],
      "isFixedGasLimit": false
    },
    {
      "hash": "0xf092f61294df197317ddffafc50251d1c673de5ea32793a8d32d73d59fc8a16f",
      "transactionType": "CALL",
      "contractName": "DSPC",
      "contractAddress": "0x4b5b12ac1bc588438dcb08c28049e0956a589f0b",
      "function": "file(bytes32,bytes32,uint256)",
      "arguments": [
        "0x4554482d43000000000000000000000000000000000000000000000000000000",
        "0x6d61780000000000000000000000000000000000000000000000000000000000",
        "30000"
      ],
      "transaction": {
        "from": "0x195a7d8610edd06e0c27c006b6970319133cb19a",
        "to": "0x4b5b12ac1bc588438dcb08c28049e0956a589f0b",
        "gas": "0x1404a",
        "value": "0x0",
        "input": "0x1a0b287e4554482d430000000000000000000000000000000000000000000000000000006d617800000000000000000000000000000000000000000000000000000000000000000000000000000000000000000000000000000000000000000000007530",
        "nonce": "0x14",
        "chainId": "0xaa36a7"
      },
      "additionalContracts": [],
      "isFixedGasLimit": false
    },
    {
      "hash": "0x1c983c640a5c733e63bef9d904aa00399582dafb0281d24de5fa31ad0de323ef",
      "transactionType": "CALL",
      "contractName": "DSPC",
      "contractAddress": "0x4b5b12ac1bc588438dcb08c28049e0956a589f0b",
      "function": "file(bytes32,bytes32,uint256)",
      "arguments": [
        "0x4554482d43000000000000000000000000000000000000000000000000000000",
        "0x6d696e0000000000000000000000000000000000000000000000000000000000",
        "0"
      ],
      "transaction": {
        "from": "0x195a7d8610edd06e0c27c006b6970319133cb19a",
        "to": "0x4b5b12ac1bc588438dcb08c28049e0956a589f0b",
        "gas": "0xce51",
        "value": "0x0",
        "input": "0x1a0b287e4554482d430000000000000000000000000000000000000000000000000000006d696e00000000000000000000000000000000000000000000000000000000000000000000000000000000000000000000000000000000000000000000000000",
        "nonce": "0x15",
        "chainId": "0xaa36a7"
      },
      "additionalContracts": [],
      "isFixedGasLimit": false
    },
    {
      "hash": "0x4ebbaed7b28bd482f07b157f3275815cf246d1f356e4457a889415145ec9fd85",
      "transactionType": "CALL",
      "contractName": "DSPC",
      "contractAddress": "0x4b5b12ac1bc588438dcb08c28049e0956a589f0b",
      "function": "file(bytes32,bytes32,uint256)",
      "arguments": [
        "0x4554482d43000000000000000000000000000000000000000000000000000000",
        "0x7374657000000000000000000000000000000000000000000000000000000000",
        "100"
      ],
      "transaction": {
        "from": "0x195a7d8610edd06e0c27c006b6970319133cb19a",
        "to": "0x4b5b12ac1bc588438dcb08c28049e0956a589f0b",
        "gas": "0xd153",
        "value": "0x0",
        "input": "0x1a0b287e4554482d4300000000000000000000000000000000000000000000000000000073746570000000000000000000000000000000000000000000000000000000000000000000000000000000000000000000000000000000000000000000000064",
        "nonce": "0x16",
        "chainId": "0xaa36a7"
      },
      "additionalContracts": [],
      "isFixedGasLimit": false
    },
    {
      "hash": "0xf0dbe9cb7f9b5bda8ccd0410f4ca3508afe43331c01a15e51c3631ca8eba9127",
      "transactionType": "CALL",
      "contractName": "DSPC",
      "contractAddress": "0x4b5b12ac1bc588438dcb08c28049e0956a589f0b",
      "function": "kiss(address)",
      "arguments": [
        "0x195a7d8610edd06e0C27c006b6970319133Cb19A"
      ],
      "transaction": {
        "from": "0x195a7d8610edd06e0c27c006b6970319133cb19a",
        "to": "0x4b5b12ac1bc588438dcb08c28049e0956a589f0b",
        "gas": "0x10e7b",
        "value": "0x0",
        "input": "0xf29c29c4000000000000000000000000195a7d8610edd06e0c27c006b6970319133cb19a",
        "nonce": "0x17",
        "chainId": "0xaa36a7"
      },
      "additionalContracts": [],
      "isFixedGasLimit": false
    },
    {
      "hash": "0x3419410f69806d445d8eff793471ea0caab46e88301192ea08ccd0ea2678df35",
      "transactionType": "CALL",
      "contractName": "DSPC",
      "contractAddress": "0x4b5b12ac1bc588438dcb08c28049e0956a589f0b",
      "function": "set((bytes32,uint256)[])",
      "arguments": [
        "[(0x4554482d41000000000000000000000000000000000000000000000000000000, 50), (0x4554482d42000000000000000000000000000000000000000000000000000000, 20), (0x4554482d43000000000000000000000000000000000000000000000000000000, 100)]"
      ],
      "transaction": {
        "from": "0x195a7d8610edd06e0c27c006b6970319133cb19a",
        "to": "0x4b5b12ac1bc588438dcb08c28049e0956a589f0b",
        "gas": "0x412b3",
        "value": "0x0",
        "input": "0x474d857f000000000000000000000000000000000000000000000000000000000000002000000000000000000000000000000000000000000000000000000000000000034554482d4100000000000000000000000000000000000000000000000000000000000000000000000000000000000000000000000000000000000000000000324554482d4200000000000000000000000000000000000000000000000000000000000000000000000000000000000000000000000000000000000000000000144554482d430000000000000000000000000000000000000000000000000000000000000000000000000000000000000000000000000000000000000000000064",
        "nonce": "0x18",
        "chainId": "0xaa36a7"
      },
      "additionalContracts": [],
      "isFixedGasLimit": false
    }
  ],
  "receipts": [
    {
      "status": "0x1",
      "cumulativeGasUsed": "0x1205ee4",
      "logs": [
        {
          "address": "0x4b5b12ac1bc588438dcb08c28049e0956a589f0b",
          "topics": [
            "0xdd0e34038ac38b2a1ce960229778ac48a8719bc900b6c4f8d0475c6e8b385a60",
            "0x000000000000000000000000195a7d8610edd06e0c27c006b6970319133cb19a"
          ],
          "data": "0x",
          "blockHash": "0x04716120ede8b8b91fd08b617f09943d8cfbbfa8e99e555db88dbf9db5543002",
          "blockNumber": "0x7896e5",
          "blockTimestamp": "0x67d498a0",
          "transactionHash": "0x24fc9ea013fb9b840039ac911aeea097f9b64c08d05e7421000018a16c7d4ac6",
          "transactionIndex": "0x90",
          "logIndex": "0xf7",
          "removed": false
        }
      ],
      "logsBloom": "0x00008000000000000000000000000000000000000000000000000000000000000000000000000000000000001000000000004000000000040000000000000000000000400000000000000000000000000000000000000000000000000000000000000000000000000000000000000000000000000000000000010000000000000000000000000000000000000000800000000000000000000000000000000000000000000000000000000000000020000000000000000000000000000000000000000000000000000000000000000000000000000000000000000000000010000000000000000000000000000000000000000000000000000000000000000000",
      "type": "0x2",
      "transactionHash": "0x24fc9ea013fb9b840039ac911aeea097f9b64c08d05e7421000018a16c7d4ac6",
      "transactionIndex": "0x90",
      "blockHash": "0x04716120ede8b8b91fd08b617f09943d8cfbbfa8e99e555db88dbf9db5543002",
      "blockNumber": "0x7896e5",
      "gasUsed": "0x149c02",
      "effectiveGasPrice": "0x6be9456",
      "from": "0x195a7d8610edd06e0c27c006b6970319133cb19a",
      "to": null,
      "contractAddress": "0x4b5b12ac1bc588438dcb08c28049e0956a589f0b"
    },
    {
      "status": "0x1",
      "cumulativeGasUsed": "0x77142d",
      "logs": [
        {
          "address": "0x4b5b12ac1bc588438dcb08c28049e0956a589f0b",
          "topics": [
            "0xe986e40cc8c151830d4f61050f4fb2e4add8567caad2d5f5496f9158e91fe4c7",
            "0x7461750000000000000000000000000000000000000000000000000000000000"
          ],
          "data": "0x0000000000000000000000000000000000000000000000000000000000000e10",
          "blockHash": "0x82141426eb1c68c4c50ba31e5fd5b120e08748ef6f009a6ac1d919eb3b6e96ae",
          "blockNumber": "0x7896e6",
          "blockTimestamp": "0x67d498ac",
          "transactionHash": "0x86dbd080afe81a3c35eae6d153c75c5679724b03d58415e5c55eb5c50d2b7a71",
          "transactionIndex": "0x43",
          "logIndex": "0x8e",
          "removed": false
        }
      ],
      "logsBloom": "0x00000000000000000000000000000000000000000000000000000000000000000000000000000000000000001000000000000000000000000000000001000000000000000000000000000000000000000000000000000000000000000000000000000000000000000000000000000000000000000000000000010000000000000000000000000000000000000000800000000200000000000000000200000000000000000000000020000000000000000000000000000000000000000000000000000000000001000001000000000000000000000000000000000000000000000000000000000000000000000000000000000000000000000000000000000000",
      "type": "0x2",
      "transactionHash": "0x86dbd080afe81a3c35eae6d153c75c5679724b03d58415e5c55eb5c50d2b7a71",
      "transactionIndex": "0x43",
      "blockHash": "0x82141426eb1c68c4c50ba31e5fd5b120e08748ef6f009a6ac1d919eb3b6e96ae",
      "blockNumber": "0x7896e6",
      "gasUsed": "0xb9d2",
      "effectiveGasPrice": "0x6ca798c",
      "from": "0x195a7d8610edd06e0c27c006b6970319133cb19a",
      "to": "0x4b5b12ac1bc588438dcb08c28049e0956a589f0b",
      "contractAddress": null
    },
    {
      "status": "0x1",
      "cumulativeGasUsed": "0xbf327f",
      "logs": [
        {
          "address": "0x4b5b12ac1bc588438dcb08c28049e0956a589f0b",
          "topics": [
            "0x851aa1caf4888170ad8875449d18f0f512fd6deb2a6571ea1a41fb9f95acbcd1",
            "0x4554482d41000000000000000000000000000000000000000000000000000000",
            "0x6d61780000000000000000000000000000000000000000000000000000000000"
          ],
          "data": "0x0000000000000000000000000000000000000000000000000000000000007530",
          "blockHash": "0x056685763804a451dada71f7b810b6e43117e0bcf3a473a1722ac68b5f04fa98",
          "blockNumber": "0x7896e7",
          "blockTimestamp": "0x67d498b8",
          "transactionHash": "0xe2a7462a27857e3e36c84c0608128b11e001a94876adf15a09ab7bf756e96968",
          "transactionIndex": "0x73",
          "logIndex": "0xcb",
          "removed": false
        }
      ],
      "logsBloom": "0x00000000000000000000000000000000000000000000000000000000000000000000000000000000000000001000000800000000000000000000000000000000000000000000000000000000000040000000000000000001000010000000000000000000000000000000000000000000000000000000000000010000000000000000000000400000000000000000800000000000000000000000100000000000000000000000000000000000000000000000000000000000000000000020000000000000000000000000000000000000000000001000000000000000000000000000000000000000000000000000000000000000000000000000020000000000",
      "type": "0x2",
      "transactionHash": "0xe2a7462a27857e3e36c84c0608128b11e001a94876adf15a09ab7bf756e96968",
      "transactionIndex": "0x73",
      "blockHash": "0x056685763804a451dada71f7b810b6e43117e0bcf3a473a1722ac68b5f04fa98",
      "blockNumber": "0x7896e7",
      "gasUsed": "0xdb01",
      "effectiveGasPrice": "0x686e223",
      "from": "0x195a7d8610edd06e0c27c006b6970319133cb19a",
      "to": "0x4b5b12ac1bc588438dcb08c28049e0956a589f0b",
      "contractAddress": null
    },
    {
      "status": "0x1",
      "cumulativeGasUsed": "0x1cf259f",
      "logs": [
        {
          "address": "0x4b5b12ac1bc588438dcb08c28049e0956a589f0b",
          "topics": [
            "0x851aa1caf4888170ad8875449d18f0f512fd6deb2a6571ea1a41fb9f95acbcd1",
            "0x4554482d41000000000000000000000000000000000000000000000000000000",
            "0x6d696e0000000000000000000000000000000000000000000000000000000000"
          ],
          "data": "0x0000000000000000000000000000000000000000000000000000000000000000",
          "blockHash": "0x02bf9726753373de2c19dc45ad88c8ade1fe63d7e3a0a51698db77e18f518ed7",
          "blockNumber": "0x7896e8",
          "blockTimestamp": "0x67d498c4",
          "transactionHash": "0x7a451146934fb5bf71c84a9795c8c38f46e915f483f79a89d97aa7b4c1989a8e",
          "transactionIndex": "0x8f",
          "logIndex": "0x11b",
          "removed": false
        }
      ],
      "logsBloom": "0x00000000000000000000000000000000000000000000000000000000000000400000000000000000000000001000000000000000000000000000000000000000000000000000000000000000000000000000000000000001000000000000000000000000000000000000000000000000000000000000000000010000004000000000000000400000000000000000800000000000000000000000100000000000000000000000000000000000000000000000000000000000000000000020000000000000000000000000000000000000800000001000000000000000000000000000000000000000000000000000000000000000000000000000020000000000",
      "type": "0x2",
      "transactionHash": "0x7a451146934fb5bf71c84a9795c8c38f46e915f483f79a89d97aa7b4c1989a8e",
      "transactionIndex": "0x8f",
      "blockHash": "0x02bf9726753373de2c19dc45ad88c8ade1fe63d7e3a0a51698db77e18f518ed7",
      "blockNumber": "0x7896e8",
      "gasUsed": "0x8d13",
      "effectiveGasPrice": "0x64991ad",
      "from": "0x195a7d8610edd06e0c27c006b6970319133cb19a",
      "to": "0x4b5b12ac1bc588438dcb08c28049e0956a589f0b",
      "contractAddress": null
    },
    {
      "status": "0x1",
      "cumulativeGasUsed": "0xcfafe0",
      "logs": [
        {
          "address": "0x4b5b12ac1bc588438dcb08c28049e0956a589f0b",
          "topics": [
            "0x851aa1caf4888170ad8875449d18f0f512fd6deb2a6571ea1a41fb9f95acbcd1",
            "0x4554482d41000000000000000000000000000000000000000000000000000000",
            "0x7374657000000000000000000000000000000000000000000000000000000000"
          ],
          "data": "0x0000000000000000000000000000000000000000000000000000000000000064",
          "blockHash": "0xa9591bf637485f3c793facbf7170b3caa090e080107152efced4c135953e9feb",
          "blockNumber": "0x7896e9",
          "blockTimestamp": "0x67d498d0",
          "transactionHash": "0xa31e19b47d829d78bfbf9679f48a2807fc0b5cefbb05cc0c68c9a8d28b08fbba",
          "transactionIndex": "0x59",
          "logIndex": "0xbb",
          "removed": false
        }
      ],
      "logsBloom": "0x00000000000000000000000000000000000000000000000000000004000000000000000000000000000000001000000000000000000000020000000000000000000000000000000000000000000000000000000000000001000000000000000000000000000000000000000000000000000000000000000000010000000000000000000000400000000040000000800000000000000000000000100000000000000000000000000000000000000000000000000000000000000000000020000000000000000000000000000000000000000000001000000000000000000000000000000000000000000000000000000000000000000000000000020000000000",
      "type": "0x2",
      "transactionHash": "0xa31e19b47d829d78bfbf9679f48a2807fc0b5cefbb05cc0c68c9a8d28b08fbba",
      "transactionIndex": "0x59",
      "blockHash": "0xa9591bf637485f3c793facbf7170b3caa090e080107152efced4c135953e9feb",
      "blockNumber": "0x7896e9",
      "gasUsed": "0x978d",
      "effectiveGasPrice": "0x6e6656b",
      "from": "0x195a7d8610edd06e0c27c006b6970319133cb19a",
      "to": "0x4b5b12ac1bc588438dcb08c28049e0956a589f0b",
      "contractAddress": null
    },
    {
      "status": "0x1",
      "cumulativeGasUsed": "0xaa300c",
      "logs": [
        {
          "address": "0x4b5b12ac1bc588438dcb08c28049e0956a589f0b",
          "topics": [
            "0x851aa1caf4888170ad8875449d18f0f512fd6deb2a6571ea1a41fb9f95acbcd1",
            "0x4554482d42000000000000000000000000000000000000000000000000000000",
            "0x6d61780000000000000000000000000000000000000000000000000000000000"
          ],
          "data": "0x0000000000000000000000000000000000000000000000000000000000007530",
          "blockHash": "0x9a2983cc832d38a6a75b800317102311ca63148df54ec2f7ec73431331c2061d",
          "blockNumber": "0x7896ea",
          "blockTimestamp": "0x67d498dc",
          "transactionHash": "0xaf2f3cec5d64e842289bc2fbb9da143ae77d82c5dd05d221e9dcae2710dd391b",
          "transactionIndex": "0x62",
          "logIndex": "0xd6",
          "removed": false
        }
      ],
      "logsBloom": "0x00000000000000000000000000000000000000000000000000000000000000000000000000000000000000001000000800000080000000000000000000000000000000000000000000000000000040000000000000000001000010000000000000000000000000000000000000000000000000000400000000010000000000000000000000000000000000000000800000000000000000000000000000000000000000000000000000000000000000000000000000000000000000000020000000000000000000000000000000000000000000001000000000000000000000000000000000000000000000000000000000010000000000000000000000000000",
      "type": "0x2",
      "transactionHash": "0xaf2f3cec5d64e842289bc2fbb9da143ae77d82c5dd05d221e9dcae2710dd391b",
      "transactionIndex": "0x62",
      "blockHash": "0x9a2983cc832d38a6a75b800317102311ca63148df54ec2f7ec73431331c2061d",
      "blockNumber": "0x7896ea",
      "gasUsed": "0xdb01",
      "effectiveGasPrice": "0x709ff8d",
      "from": "0x195a7d8610edd06e0c27c006b6970319133cb19a",
      "to": "0x4b5b12ac1bc588438dcb08c28049e0956a589f0b",
      "contractAddress": null
    },
    {
      "status": "0x1",
      "cumulativeGasUsed": "0x12e9e3f",
      "logs": [
        {
          "address": "0x4b5b12ac1bc588438dcb08c28049e0956a589f0b",
          "topics": [
            "0x851aa1caf4888170ad8875449d18f0f512fd6deb2a6571ea1a41fb9f95acbcd1",
            "0x4554482d42000000000000000000000000000000000000000000000000000000",
            "0x6d696e0000000000000000000000000000000000000000000000000000000000"
          ],
          "data": "0x0000000000000000000000000000000000000000000000000000000000000000",
          "blockHash": "0x7e32adfb087e29bc7599914f7a4a3cec468c95ac91b527e2d05edb1c6d66ff66",
          "blockNumber": "0x7896eb",
          "blockTimestamp": "0x67d498e8",
          "transactionHash": "0xea0b232182e55479505b8ac9b1f7ce66950e00f318c7ab0e9f80c07c5fefdc9e",
          "transactionIndex": "0x8a",
          "logIndex": "0x109",
          "removed": false
        }
      ],
      "logsBloom": "0x00000000000000000000000000000000000000000000000000000000000000400000000000000000000000001000000000000080000000000000000000000000000000000000000000000000000000000000000000000001000000000000000000000000000000000000000000000000000000000400000000010000004000000000000000000000000000000000800000000000000000000000000000000000000000000000000000000000000000000000000000000000000000000020000000000000000000000000000000000000800000001000000000000000000000000000000000000000000000000000000000010000000000000000000000000000",
      "type": "0x2",
      "transactionHash": "0xea0b232182e55479505b8ac9b1f7ce66950e00f318c7ab0e9f80c07c5fefdc9e",
      "transactionIndex": "0x8a",
      "blockHash": "0x7e32adfb087e29bc7599914f7a4a3cec468c95ac91b527e2d05edb1c6d66ff66",
      "blockNumber": "0x7896eb",
      "gasUsed": "0x8d13",
      "effectiveGasPrice": "0x6db6d9c",
      "from": "0x195a7d8610edd06e0c27c006b6970319133cb19a",
      "to": "0x4b5b12ac1bc588438dcb08c28049e0956a589f0b",
      "contractAddress": null
    },
    {
      "status": "0x1",
      "cumulativeGasUsed": "0xeeb4fb",
      "logs": [
        {
          "address": "0x4b5b12ac1bc588438dcb08c28049e0956a589f0b",
          "topics": [
            "0x851aa1caf4888170ad8875449d18f0f512fd6deb2a6571ea1a41fb9f95acbcd1",
            "0x4554482d42000000000000000000000000000000000000000000000000000000",
            "0x7374657000000000000000000000000000000000000000000000000000000000"
          ],
          "data": "0x0000000000000000000000000000000000000000000000000000000000000064",
          "blockHash": "0x28169fd40ed85e6a39445f12be13fe789a68411ec2e9007d1185c41b81b7e6e8",
          "blockNumber": "0x7896ec",
          "blockTimestamp": "0x67d498f4",
          "transactionHash": "0xe1aa43540ac44f85a87fc7c63dc900baaf7e0186015616acbeba4c8de43985be",
          "transactionIndex": "0x64",
          "logIndex": "0xbd",
          "removed": false
        }
      ],
      "logsBloom": "0x00000000000000000000000000000000000000000000000000000004000000000000000000000000000000001000000000000080000000020000000000000000000000000000000000000000000000000000000000000001000000000000000000000000000000000000000000000000000000000400000000010000000000000000000000000000000040000000800000000000000000000000000000000000000000000000000000000000000000000000000000000000000000000020000000000000000000000000000000000000000000001000000000000000000000000000000000000000000000000000000000010000000000000000000000000000",
      "type": "0x2",
      "transactionHash": "0xe1aa43540ac44f85a87fc7c63dc900baaf7e0186015616acbeba4c8de43985be",
      "transactionIndex": "0x64",
      "blockHash": "0x28169fd40ed85e6a39445f12be13fe789a68411ec2e9007d1185c41b81b7e6e8",
      "blockNumber": "0x7896ec",
      "gasUsed": "0x978d",
      "effectiveGasPrice": "0x71b199d",
      "from": "0x195a7d8610edd06e0c27c006b6970319133cb19a",
      "to": "0x4b5b12ac1bc588438dcb08c28049e0956a589f0b",
      "contractAddress": null
    },
    {
      "status": "0x1",
      "cumulativeGasUsed": "0x1263e83",
      "logs": [
        {
          "address": "0x4b5b12ac1bc588438dcb08c28049e0956a589f0b",
          "topics": [
            "0x851aa1caf4888170ad8875449d18f0f512fd6deb2a6571ea1a41fb9f95acbcd1",
            "0x4554482d43000000000000000000000000000000000000000000000000000000",
            "0x6d61780000000000000000000000000000000000000000000000000000000000"
          ],
          "data": "0x0000000000000000000000000000000000000000000000000000000000007530",
          "blockHash": "0xca99e6aba380fb8a491f871067b964fea458475ddd033d62ccc63e1b79c17b7c",
          "blockNumber": "0x7896ed",
          "blockTimestamp": "0x67d49900",
          "transactionHash": "0xf092f61294df197317ddffafc50251d1c673de5ea32793a8d32d73d59fc8a16f",
          "transactionIndex": "0x66",
          "logIndex": "0xb7",
          "removed": false
        }
      ],
      "logsBloom": "0x00000000000000000000000000000000000000000000000080000000000000000000000000000000000000001000000800000000000000000000000000000000000000000010000000000000000040000000000000000001000010000000000000000000000000000000000000000000000000000000000000010000000000000000000000000000000000000000800000080000000000000000000000000000000000000000000000000000000000000000000000000000000000000020000000000000000000000000000000000000000000001000000000000000000000000000000000000000000000000000000000000000000000000000000000000000",
      "type": "0x2",
      "transactionHash": "0xf092f61294df197317ddffafc50251d1c673de5ea32793a8d32d73d59fc8a16f",
      "transactionIndex": "0x66",
      "blockHash": "0xca99e6aba380fb8a491f871067b964fea458475ddd033d62ccc63e1b79c17b7c",
      "blockNumber": "0x7896ed",
      "gasUsed": "0xdb01",
      "effectiveGasPrice": "0x72f8f74",
      "from": "0x195a7d8610edd06e0c27c006b6970319133cb19a",
      "to": "0x4b5b12ac1bc588438dcb08c28049e0956a589f0b",
      "contractAddress": null
    },
    {
      "status": "0x1",
      "cumulativeGasUsed": "0xc7cb17",
      "logs": [
        {
          "address": "0x4b5b12ac1bc588438dcb08c28049e0956a589f0b",
          "topics": [
            "0x851aa1caf4888170ad8875449d18f0f512fd6deb2a6571ea1a41fb9f95acbcd1",
            "0x4554482d43000000000000000000000000000000000000000000000000000000",
            "0x6d696e0000000000000000000000000000000000000000000000000000000000"
          ],
          "data": "0x0000000000000000000000000000000000000000000000000000000000000000",
          "blockHash": "0xa0e61cb8578abc8acfa76d1ddf526bce2ae9e9d18d7cc4480cb77e1b5c8f0c37",
          "blockNumber": "0x7896ee",
          "blockTimestamp": "0x67d4990c",
          "transactionHash": "0x1c983c640a5c733e63bef9d904aa00399582dafb0281d24de5fa31ad0de323ef",
          "transactionIndex": "0x63",
          "logIndex": "0xb7",
          "removed": false
        }
      ],
      "logsBloom": "0x00000000000000000000000000000000000000000000000080000000000000400000000000000000000000001000000000000000000000000000000000000000000000000010000000000000000000000000000000000001000000000000000000000000000000000000000000000000000000000000000000010000004000000000000000000000000000000000800000080000000000000000000000000000000000000000000000000000000000000000000000000000000000000020000000000000000000000000000000000000800000001000000000000000000000000000000000000000000000000000000000000000000000000000000000000000",
      "type": "0x2",
      "transactionHash": "0x1c983c640a5c733e63bef9d904aa00399582dafb0281d24de5fa31ad0de323ef",
      "transactionIndex": "0x63",
      "blockHash": "0xa0e61cb8578abc8acfa76d1ddf526bce2ae9e9d18d7cc4480cb77e1b5c8f0c37",
      "blockNumber": "0x7896ee",
      "gasUsed": "0x8d13",
      "effectiveGasPrice": "0x742fd7d",
      "from": "0x195a7d8610edd06e0c27c006b6970319133cb19a",
      "to": "0x4b5b12ac1bc588438dcb08c28049e0956a589f0b",
      "contractAddress": null
    },
    {
      "status": "0x1",
      "cumulativeGasUsed": "0xdbc609",
      "logs": [
        {
          "address": "0x4b5b12ac1bc588438dcb08c28049e0956a589f0b",
          "topics": [
            "0x851aa1caf4888170ad8875449d18f0f512fd6deb2a6571ea1a41fb9f95acbcd1",
            "0x4554482d43000000000000000000000000000000000000000000000000000000",
            "0x7374657000000000000000000000000000000000000000000000000000000000"
          ],
          "data": "0x0000000000000000000000000000000000000000000000000000000000000064",
          "blockHash": "0xa1696cd3c10eb7b4e5204c026a4c8922a89e2bac3f6c053990aa0ead1dc542e8",
          "blockNumber": "0x7896ef",
          "blockTimestamp": "0x67d49918",
          "transactionHash": "0x4ebbaed7b28bd482f07b157f3275815cf246d1f356e4457a889415145ec9fd85",
          "transactionIndex": "0x78",
          "logIndex": "0xc4",
          "removed": false
        }
      ],
      "logsBloom": "0x00000000000000000000000000000000000000000000000080000004000000000000000000000000000000001000000000000000000000020000000000000000000000000010000000000000000000000000000000000001000000000000000000000000000000000000000000000000000000000000000000010000000000000000000000000000000040000000800000080000000000000000000000000000000000000000000000000000000000000000000000000000000000000020000000000000000000000000000000000000000000001000000000000000000000000000000000000000000000000000000000000000000000000000000000000000",
      "type": "0x2",
      "transactionHash": "0x4ebbaed7b28bd482f07b157f3275815cf246d1f356e4457a889415145ec9fd85",
      "transactionIndex": "0x78",
      "blockHash": "0xa1696cd3c10eb7b4e5204c026a4c8922a89e2bac3f6c053990aa0ead1dc542e8",
      "blockNumber": "0x7896ef",
      "gasUsed": "0x978d",
      "effectiveGasPrice": "0x7092315",
      "from": "0x195a7d8610edd06e0c27c006b6970319133cb19a",
      "to": "0x4b5b12ac1bc588438dcb08c28049e0956a589f0b",
      "contractAddress": null
    },
    {
      "status": "0x1",
      "cumulativeGasUsed": "0x807451",
      "logs": [
        {
          "address": "0x4b5b12ac1bc588438dcb08c28049e0956a589f0b",
          "topics": [
            "0x6ffc0fabf0709270e42087e84a3bfc36041d3b281266d04ae1962185092fb244",
            "0x000000000000000000000000195a7d8610edd06e0c27c006b6970319133cb19a"
          ],
          "data": "0x",
          "blockHash": "0x227b1a9d88dab09a47e2e2fa6a2818f2a6a3b0f5fd114a3614d4e56a5a669f2b",
          "blockNumber": "0x7896f0",
          "blockTimestamp": "0x67d49924",
          "transactionHash": "0xf0dbe9cb7f9b5bda8ccd0410f4ca3508afe43331c01a15e51c3631ca8eba9127",
          "transactionIndex": "0x4f",
          "logIndex": "0x83",
          "removed": false
        }
      ],
      "logsBloom": "0x00028000000000000000000000000000000000000000000000000000000000000000000000000000000000001000000000000000000000040000000000000000000000000000000000000010000000000000000000000000000000000000000000000000000000000000000000000000000000000000000000010000000000000000000000000000000000000000800000000000000000000000000000000000000000000000000000000000000020000000000000000000000000000000000000000020000000000000000000000000000000000000000000000000000000000000000000000000000000000000000000000000000000000000000000000000",
      "type": "0x2",
      "transactionHash": "0xf0dbe9cb7f9b5bda8ccd0410f4ca3508afe43331c01a15e51c3631ca8eba9127",
      "transactionIndex": "0x4f",
      "blockHash": "0x227b1a9d88dab09a47e2e2fa6a2818f2a6a3b0f5fd114a3614d4e56a5a669f2b",
      "blockNumber": "0x7896f0",
      "gasUsed": "0xb8f2",
      "effectiveGasPrice": "0x71a44f2",
      "from": "0x195a7d8610edd06e0c27c006b6970319133cb19a",
      "to": "0x4b5b12ac1bc588438dcb08c28049e0956a589f0b",
      "contractAddress": null
    },
    {
      "status": "0x1",
      "cumulativeGasUsed": "0x21bdda0",
      "logs": [
        {
          "address": "0x4b5b12ac1bc588438dcb08c28049e0956a589f0b",
          "topics": [
            "0x28e3246f80515f5c1ed987b133ef2f193439b25acba6a5e69f219e896fc9d179",
            "0x4554482d41000000000000000000000000000000000000000000000000000000"
          ],
          "data": "0x0000000000000000000000000000000000000000000000000000000000000032",
          "blockHash": "0x424cd181c902f090ed6d3cd024224249bbeb8b4082fb11826d9f967132367d1a",
          "blockNumber": "0x7896f2",
          "blockTimestamp": "0x67d4993c",
          "transactionHash": "0x3419410f69806d445d8eff793471ea0caab46e88301192ea08ccd0ea2678df35",
          "transactionIndex": "0xe2",
          "logIndex": "0x170",
          "removed": false
        },
        {
          "address": "0x4b5b12ac1bc588438dcb08c28049e0956a589f0b",
          "topics": [
            "0x28e3246f80515f5c1ed987b133ef2f193439b25acba6a5e69f219e896fc9d179",
            "0x4554482d42000000000000000000000000000000000000000000000000000000"
          ],
          "data": "0x0000000000000000000000000000000000000000000000000000000000000014",
          "blockHash": "0x424cd181c902f090ed6d3cd024224249bbeb8b4082fb11826d9f967132367d1a",
          "blockNumber": "0x7896f2",
          "blockTimestamp": "0x67d4993c",
          "transactionHash": "0x3419410f69806d445d8eff793471ea0caab46e88301192ea08ccd0ea2678df35",
          "transactionIndex": "0xe2",
          "logIndex": "0x171",
          "removed": false
        },
        {
          "address": "0x4b5b12ac1bc588438dcb08c28049e0956a589f0b",
          "topics": [
            "0x28e3246f80515f5c1ed987b133ef2f193439b25acba6a5e69f219e896fc9d179",
            "0x4554482d43000000000000000000000000000000000000000000000000000000"
          ],
          "data": "0x0000000000000000000000000000000000000000000000000000000000000064",
          "blockHash": "0x424cd181c902f090ed6d3cd024224249bbeb8b4082fb11826d9f967132367d1a",
          "blockNumber": "0x7896f2",
          "blockTimestamp": "0x67d4993c",
          "transactionHash": "0x3419410f69806d445d8eff793471ea0caab46e88301192ea08ccd0ea2678df35",
          "transactionIndex": "0xe2",
          "logIndex": "0x172",
          "removed": false
        }
      ],
      "logsBloom": "0x00000000000000000000000000000000000000000000000080000000000000000000000000000000000000001000000000000080000000000000000000000000000000000010000000000000000000000000000000000000000000000000000000000000000000000000000000000000000000000400000000010000000000000000000000400000000000000000800000080000000000000000100000000000000000000000000400000000000100000000000000000000000000000000000000000000000000000000000000000000000000000000000000000400000000000000000000000000000000000000000000010000000000000000020000000000",
      "type": "0x2",
      "transactionHash": "0x3419410f69806d445d8eff793471ea0caab46e88301192ea08ccd0ea2678df35",
      "transactionIndex": "0xe2",
      "blockHash": "0x424cd181c902f090ed6d3cd024224249bbeb8b4082fb11826d9f967132367d1a",
      "blockNumber": "0x7896f2",
      "gasUsed": "0x2f2e6",
      "effectiveGasPrice": "0x611264c",
      "from": "0x195a7d8610edd06e0c27c006b6970319133cb19a",
      "to": "0x4b5b12ac1bc588438dcb08c28049e0956a589f0b",
      "contractAddress": null
    }
  ],
  "libraries": [],
  "pending": [],
  "returns": {},
  "timestamp": 1741986125,
  "chain": 11155111,
  "commit": "7bdb056"
}