{
  "transactions": [
    {
      "hash": "0x799c5796b77be3a4143153700111a784bba34077af24b18e6fe5e4d62e9513ce",
      "transactionType": "CREATE",
      "contractName": "Vat",
      "contractAddress": "0xe938502439f4a4bda4c7d6484c8b6b22c9cd0042",
      "function": null,
      "arguments": null,
      "transaction": {
        "from": "0x195a7d8610edd06e0c27c006b6970319133cb19a",
        "gas": "0x1ff6a6",
        "value": "0x0",
        "input": "0x608060405234801561001057600080fd5b50336000908152602081905260409020600190819055600a55611b5e806100386000396000f3fe608060405234801561001057600080fd5b50600436106101c45760003560e01c80637cdd3fde116100f9578063bb35783b11610097578063dc4d20fa11610071578063dc4d20fa146105bb578063f059212a146105e1578063f24e23eb14610607578063f37ac61c1461063d576101c4565b8063bb35783b14610517578063bf353dbb1461054d578063d9638d3614610573576101c4565b80639c52a7f1116100d35780639c52a7f114610491578063a3b22fc4146104b7578063b65337df146104dd578063babe8a3f1461050f576101c4565b80637cdd3fde14610415578063870c616d14610447578063957aa58c14610489576101c4565b80634538c4eb11610166578063692450091161014057806369245009146103575780636c25b3461461035f57806376088703146103855780637bab3f40146103cd576101c4565b80634538c4eb146102c75780636111be2e146102f557806365fae35e14610331576101c4565b80632424be5c116101a25780632424be5c1461023a57806329ae81141461027f5780632d61a355146102a25780633b663195146102aa576101c4565b80630dca59c1146101c95780631a0b287e146101e3578063214414d51461020e575b600080fd5b6101d161065a565b60408051918252519081900360200190f35b61020c600480360360608110156101f957600080fd5b5080359060208101359060400135610660565b005b6101d16004803603604081101561022457600080fd5b50803590602001356001600160a01b03166107c3565b6102666004803603604081101561025057600080fd5b50803590602001356001600160a01b03166107e0565b6040805192835260208301919091528051918290030190f35b61020c6004803603604081101561029557600080fd5b5080359060200135610804565b6101d16108b1565b61020c600480360360208110156102c057600080fd5b50356108b7565b6101d1600480360360408110156102dd57600080fd5b506001600160a01b0381358116916020013516610987565b61020c6004803603608081101561030b57600080fd5b508035906001600160a01b036020820135811691604081013590911690606001356109a4565b61020c6004803603602081101561034757600080fd5b50356001600160a01b0316610a7f565b61020c610b34565b6101d16004803603602081101561037557600080fd5b50356001600160a01b0316610b8d565b61020c600480360360c081101561039b57600080fd5b508035906001600160a01b03602082013581169160408101358216916060820135169060808101359060a00135610b9f565b61020c600480360360c08110156103e357600080fd5b508035906001600160a01b03602082013581169160408101358216916060820135169060808101359060a0013561106c565b61020c6004803603606081101561042b57600080fd5b508035906001600160a01b0360208201351690604001356111ce565b61020c600480360360a081101561045d57600080fd5b508035906001600160a01b03602082013581169160408101359091169060608101359060800135611276565b6101d16114ec565b61020c600480360360208110156104a757600080fd5b50356001600160a01b03166114f2565b61020c600480360360208110156104cd57600080fd5b50356001600160a01b03166115a4565b61020c600480360360608110156104f357600080fd5b508035906001600160a01b0360208201351690604001356115cd565b6101d16116ec565b61020c6004803603606081101561052d57600080fd5b506001600160a01b038135811691602081013590911690604001356116f2565b6101d16004803603602081101561056357600080fd5b50356001600160a01b03166117b2565b6105906004803603602081101561058957600080fd5b50356117c4565b6040805195865260208601949094528484019290925260608401526080830152519081900360a00190f35b61020c600480360360208110156105d157600080fd5b50356001600160a01b03166117f3565b6101d1600480360360208110156105f757600080fd5b50356001600160a01b031661181c565b61020c6004803603606081101561061d57600080fd5b506001600160a01b0381358116916020810135909116906040013561182e565b61020c6004803603602081101561065357600080fd5b5035611917565b60075481565b336000908152602081905260409020546001146106b2576040805162461bcd60e51b81526020600482015260126024820152600080516020611b09833981519152604482015290519081900360640190fd5b600a546001146106f8576040805162461bcd60e51b815260206004820152600c60248201526b5661742f6e6f742d6c69766560a01b604482015290519081900360640190fd5b81631cdc1bdd60e21b1415610721576000838152600260208190526040909120018190556107be565b81636c696e6560e01b14156107495760008381526002602052604090206003018190556107be565b8163191d5cdd60e21b14156107715760008381526002602052604090206004018190556107be565b6040805162461bcd60e51b815260206004820152601b60248201527f5661742f66696c652d756e7265636f676e697a65642d706172616d0000000000604482015290519081900360640190fd5b505050565b600460209081526000928352604080842090915290825290205481565b60036020908152600092835260408084209091529082529020805460019091015482565b33600090815260208190526040902054600114610856576040805162461bcd60e51b81526020600482015260126024820152600080516020611b09833981519152604482015290519081900360640190fd5b600a5460011461089c576040805162461bcd60e51b815260206004820152600c60248201526b5661742f6e6f742d6c69766560a01b604482015290519081900360640190fd5b81634c696e6560e01b14156107715760095550565b60085481565b33600090815260208190526040902054600114610909576040805162461bcd60e51b81526020600482015260126024820152600080516020611b09833981519152604482015290519081900360640190fd5b60008181526002602052604090206001015415610964576040805162461bcd60e51b815260206004820152601460248201527315985d0bda5b1acb585b1c9958591e4b5a5b9a5d60621b604482015290519081900360640190fd5b60009081526002602052604090206b033b2e3c9fd0803ce8000000600190910155565b600160209081526000928352604080842090915290825290205481565b6109ae833361199d565b6109f1576040805162461bcd60e51b815260206004820152600f60248201526e15985d0bdb9bdd0b585b1b1bddd959608a1b604482015290519081900360640190fd5b60008481526004602090815260408083206001600160a01b0387168452909152902054610a1e90826119dd565b60008581526004602090815260408083206001600160a01b038881168552925280832093909355841681522054610a5590826119ed565b60009485526004602090815260408087206001600160a01b03909516875293905291909320555050565b33600090815260208190526040902054600114610ad1576040805162461bcd60e51b81526020600482015260126024820152600080516020611b09833981519152604482015290519081900360640190fd5b600a54600114610b17576040805162461bcd60e51b815260206004820152600c60248201526b5661742f6e6f742d6c69766560a01b604482015290519081900360640190fd5b6001600160a01b0316600090815260208190526040902060019055565b33600090815260208190526040902054600114610b86576040805162461bcd60e51b81526020600482015260126024820152600080516020611b09833981519152604482015290519081900360640190fd5b6000600a55565b60056020526000908152604090205481565b600a54600114610be5576040805162461bcd60e51b815260206004820152600c60248201526b5661742f6e6f742d6c69766560a01b604482015290519081900360640190fd5b610bed611abf565b5060008681526003602090815260408083206001600160a01b03891684528252918290208251808401909352805483526001015490820152610c2d611ad9565b50600087815260026020818152604092839020835160a081018552815481526001820154928101839052928101549383019390935260038301546060830152600490920154608082015290610cbc576040805162461bcd60e51b815260206004820152601060248201526f15985d0bda5b1acb5b9bdd0b5a5b9a5d60821b604482015290519081900360640190fd5b8151610cc890856119fd565b82526020820151610cd990846119fd565b60208301528051610cea90846119fd565b81526020810151600090610cfe9085611a32565b90506000610d1483602001518560200151611a60565b9050610d22600754836119fd565b600781905550610d5e6000861315610d598560600151610d4a87600001518860200151611a60565b11156009546007541115611a83565b611a87565b610da6576040805162461bcd60e51b815260206004820152601460248201527315985d0bd8d95a5b1a5b99cb595e18d95959195960621b604482015290519081900360640190fd5b610dd5610dbb60008713156000891215611a83565b610dcd86600001518660400151611a60565b831115611a87565b610e15576040805162461bcd60e51b815260206004820152600c60248201526b5661742f6e6f742d7361666560a01b604482015290519081900360640190fd5b610e34610e2a60008713156000891215611a83565b610d598b3361199d565b610e79576040805162461bcd60e51b81526020600482015260116024820152705661742f6e6f742d616c6c6f7765642d7560781b604482015290519081900360640190fd5b610e8b6000871315610d598a3361199d565b610ed0576040805162461bcd60e51b81526020600482015260116024820152702b30ba17b737ba16b0b63637bbb2b216bb60791b604482015290519081900360640190fd5b610ee26000861215610d59893361199d565b610f27576040805162461bcd60e51b81526020600482015260116024820152705661742f6e6f742d616c6c6f7765642d7760781b604482015290519081900360640190fd5b610f3f84602001516000148460800151831015611a87565b610f7b576040805162461bcd60e51b815260206004820152600860248201526715985d0bd91d5cdd60c21b604482015290519081900360640190fd5b60008a81526004602090815260408083206001600160a01b038c168452909152902054610fa89087611a8b565b60008b81526004602090815260408083206001600160a01b03808e16855290835281842094909455928a168252600590522054610fe590836119fd565b6001600160a01b039788166000908152600560209081526040808320939093558c825260038082528383209c909a1682529a8b5281812086518155958b01516001968701559a8b526002808b529a8190208451815599840151948a019490945550509081015196860196909655505060608401519083015550608090910151600490910155565b336000908152602081905260409020546001146110be576040805162461bcd60e51b81526020600482015260126024820152600080516020611b09833981519152604482015290519081900360640190fd5b60008681526003602090815260408083206001600160a01b03891684528252808320898452600290925290912081546110f790856119fd565b8255600182015461110890846119fd565b6001830155805461111990846119fd565b8155600181015460009061112d9085611a32565b60008a81526004602090815260408083206001600160a01b038c16845290915290205490915061115d9086611a8b565b60008a81526004602090815260408083206001600160a01b03808d16855290835281842094909455928916825260069052205461119a9082611a8b565b6001600160a01b0387166000908152600660205260409020556008546111c09082611a8b565b600855505050505050505050565b33600090815260208190526040902054600114611220576040805162461bcd60e51b81526020600482015260126024820152600080516020611b09833981519152604482015290519081900360640190fd5b60008381526004602090815260408083206001600160a01b038616845290915290205461124d90826119fd565b60009384526004602090815260408086206001600160a01b039095168652939052919092205550565b60008581526003602090815260408083206001600160a01b03888116855290835281842090871684528184208985526002909352922082546112b89086611a8b565b835560018301546112c99085611a8b565b600184015581546112da90866119fd565b825560018201546112eb90856119fd565b8260010181905550600061130784600101548360010154611a60565b9050600061131d84600101548460010154611a60565b905061133b61132c8a3361199d565b6113368a3361199d565b611a83565b61137e576040805162461bcd60e51b815260206004820152600f60248201526e15985d0bdb9bdd0b585b1b1bddd959608a1b604482015290519081900360640190fd5b61139085600001548460020154611a60565b8211156113d7576040805162461bcd60e51b815260206004820152601060248201526f5661742f6e6f742d736166652d73726360801b604482015290519081900360640190fd5b6113e984600001548460020154611a60565b811115611430576040805162461bcd60e51b815260206004820152601060248201526f15985d0bdb9bdd0b5cd859994b591cdd60821b604482015290519081900360640190fd5b61144883600401548310158660010154600014611a87565b611488576040805162461bcd60e51b815260206004820152600c60248201526b5661742f647573742d73726360a01b604482015290519081900360640190fd5b6114a083600401548210158560010154600014611a87565b6114e0576040805162461bcd60e51b815260206004820152600c60248201526b15985d0bd91d5cdd0b591cdd60a21b604482015290519081900360640190fd5b50505050505050505050565b600a5481565b33600090815260208190526040902054600114611544576040805162461bcd60e51b81526020600482015260126024820152600080516020611b09833981519152604482015290519081900360640190fd5b600a5460011461158a576040805162461bcd60e51b815260206004820152600c60248201526b5661742f6e6f742d6c69766560a01b604482015290519081900360640190fd5b6001600160a01b0316600090815260208190526040812055565b3360009081526001602081815260408084206001600160a01b0395909516845293905291902055565b3360009081526020819052604090205460011461161f576040805162461bcd60e51b81526020600482015260126024820152600080516020611b09833981519152604482015290519081900360640190fd5b600a54600114611665576040805162461bcd60e51b815260206004820152600c60248201526b5661742f6e6f742d6c69766560a01b604482015290519081900360640190fd5b6000838152600260205260409020600181015461168290836119fd565b600182015580546000906116969084611a32565b6001600160a01b0385166000908152600560205260409020549091506116bc90826119fd565b6001600160a01b0385166000908152600560205260409020556007546116e290826119fd565b6007555050505050565b60095481565b6116fc833361199d565b61173f576040805162461bcd60e51b815260206004820152600f60248201526e15985d0bdb9bdd0b585b1b1bddd959608a1b604482015290519081900360640190fd5b6001600160a01b03831660009081526005602052604090205461176290826119dd565b6001600160a01b03808516600090815260056020526040808220939093559084168152205461179190826119ed565b6001600160a01b039092166000908152600560205260409020919091555050565b60006020819052908152604090205481565b600260208190526000918252604090912080546001820154928201546003830154600490930154919392909185565b3360009081526001602090815260408083206001600160a01b0394909416835292905290812055565b60066020526000908152604090205481565b33600090815260208190526040902054600114611880576040805162461bcd60e51b81526020600482015260126024820152600080516020611b09833981519152604482015290519081900360640190fd5b6001600160a01b0383166000908152600660205260409020546118a390826119ed565b6001600160a01b038085166000908152600660209081526040808320949094559185168152600590915220546118d990826119ed565b6001600160a01b0383166000908152600560205260409020556008546118ff90826119ed565b60085560075461190f90826119ed565b600755505050565b3360008181526006602052604090205461193190836119dd565b6001600160a01b03821660009081526006602090815260408083209390935560059052205461196090836119dd565b6001600160a01b03821660009081526005602052604090205560085461198690836119dd565b60085560075461199690836119dd565b6007555050565b6001600160a01b0382811660008181526001602081815260408084209587168085529590915282205491936119d493149114611a87565b90505b92915050565b808203828111156119d757600080fd5b808201828110156119d757600080fd5b818101600082121580611a105750828111155b611a1957600080fd5b600082131580611a295750828110155b6119d757600080fd5b8181026000831215611a4357600080fd5b811580611a29575082828281611a5557fe5b05146119d757600080fd5b6000811580611a2957505080820282828281611a7857fe5b04146119d757600080fd5b1690565b1790565b808203600082131580611a9e5750828111155b611aa757600080fd5b600082121580611a295750828110156119d757600080fd5b604051806040016040528060008152602001600081525090565b6040518060a001604052806000815260200160008152602001600081526020016000815260200160008152509056fe5661742f6e6f742d617574686f72697a65640000000000000000000000000000a26469706673582212201498164cb4137acb41923fc93c21eb8eee4b904b705cdafa7f1d717b3207600264736f6c634300060c0033",
        "nonce": "0x0",
        "chainId": "0xaa36a7"
      },
      "additionalContracts": [],
      "isFixedGasLimit": false
    },
    {
      "hash": "0xce48938dacc5918bb1b055313c387cc2fa8e7f83b82993876411ea64f66f1fbf",
      "transactionType": "CREATE",
      "contractName": "Jug",
      "contractAddress": "0xc62b866a8faa6aeff8b73d55b6f73b64b74e4fad",
      "function": null,
      "arguments": [
        "0xE938502439f4a4bdA4C7D6484c8B6b22C9Cd0042"
      ],
      "transaction": {
        "from": "0x195a7d8610edd06e0c27c006b6970319133cb19a",
        "gas": "0xc99c3",
        "value": "0x0",
        "input": "0x608060405234801561001057600080fd5b50604051610a29380380610a298339818101604052602081101561003357600080fd5b505133600090815260208190526040902060019055600280546001600160a01b039092166001600160a01b03199092169190911790556109b1806100786000396000f3fe608060405234801561001057600080fd5b50600436106100b45760003560e01c8063626cb3c511610071578063626cb3c51461017f57806365fae35e146101875780639c52a7f1146101ad578063bf353dbb146101d3578063d4e8be83146101f9578063d9638d3614610225576100b4565b80631a0b287e146100b957806329ae8114146100e457806336569e77146101075780633b6631951461012b57806344e2a5a8146101485780635001f3b514610177575b600080fd5b6100e2600480360360608110156100cf57600080fd5b508035906020810135906040013561025b565b005b6100e2600480360360408110156100fa57600080fd5b5080359060200135610387565b61010f6103f9565b604080516001600160a01b039092168252519081900360200190f35b6100e26004803603602081101561014157600080fd5b5035610408565b6101656004803603602081101561015e57600080fd5b50356104d3565b60408051918252519081900360200190f35b6101656106a3565b61010f6106a9565b6100e26004803603602081101561019d57600080fd5b50356001600160a01b03166106b8565b6100e2600480360360208110156101c357600080fd5b50356001600160a01b031661072e565b610165600480360360208110156101e957600080fd5b50356001600160a01b03166107a1565b6100e26004803603604081101561020f57600080fd5b50803590602001356001600160a01b03166107b3565b6102426004803603602081101561023b57600080fd5b503561083a565b6040805192835260208301919091528051918290030190f35b336000908152602081905260409020546001146102b4576040805162461bcd60e51b8152602060048201526012602482015271129d59cbdb9bdd0b585d5d1a1bdc9a5e995960721b604482015290519081900360640190fd5b600083815260016020819052604090912001544214610310576040805162461bcd60e51b8152602060048201526013602482015272129d59cbdc9a1bcb5b9bdd0b5d5c19185d1959606a1b604482015290519081900360640190fd5b81636475747960e01b1415610335576000838152600160205260409020819055610382565b6040805162461bcd60e51b815260206004820152601b60248201527f4a75672f66696c652d756e7265636f676e697a65642d706172616d0000000000604482015290519081900360640190fd5b505050565b336000908152602081905260409020546001146103e0576040805162461bcd60e51b8152602060048201526012602482015271129d59cbdb9bdd0b585d5d1a1bdc9a5e995960721b604482015290519081900360640190fd5b81636261736560e01b14156103355760048190555b5050565b6002546001600160a01b031681565b33600090815260208190526040902054600114610461576040805162461bcd60e51b8152602060048201526012602482015271129d59cbdb9bdd0b585d5d1a1bdc9a5e995960721b604482015290519081900360640190fd5b60008181526001602052604090208054156104ba576040805162461bcd60e51b8152602060048201526014602482015273129d59cbda5b1acb585b1c9958591e4b5a5b9a5d60621b604482015290519081900360640190fd5b6b033b2e3c9fd0803ce800000081554260019091015550565b60008181526001602081905260408220015442101561052b576040805162461bcd60e51b815260206004820152600f60248201526e4a75672f696e76616c69642d6e6f7760881b604482015290519081900360640190fd5b60025460408051636cb1c69b60e11b81526004810185905281516000936001600160a01b03169263d9638d36926024808201939182900301818787803b15801561057457600080fd5b505af1158015610588573d6000803e3d6000fd5b505050506040513d604081101561059e57600080fd5b50602090810151600454600086815260019093526040909220549092506105fa916105f4916105cd9190610853565b6000868152600160208190526040909120015442036b033b2e3c9fd0803ce8000000610869565b82610927565b6002546003549193506001600160a01b039081169163b65337df91869116610622868661095d565b6040518463ffffffff1660e01b815260040180848152602001836001600160a01b031681526020018281526020019350505050600060405180830381600087803b15801561066f57600080fd5b505af1158015610683573d6000803e3d6000fd5b505050600093845250506001602081905260409092204292019190915590565b60045481565b6003546001600160a01b031681565b33600090815260208190526040902054600114610711576040805162461bcd60e51b8152602060048201526012602482015271129d59cbdb9bdd0b585d5d1a1bdc9a5e995960721b604482015290519081900360640190fd5b6001600160a01b0316600090815260208190526040902060019055565b33600090815260208190526040902054600114610787576040805162461bcd60e51b8152602060048201526012602482015271129d59cbdb9bdd0b585d5d1a1bdc9a5e995960721b604482015290519081900360640190fd5b6001600160a01b0316600090815260208190526040812055565b60006020819052908152604090205481565b3360009081526020819052604090205460011461080c576040805162461bcd60e51b8152602060048201526012602482015271129d59cbdb9bdd0b585d5d1a1bdc9a5e995960721b604482015290519081900360640190fd5b8162766f7760e81b141561033557600380546001600160a01b0319166001600160a01b0383161790556103f5565b6001602081905260009182526040909120805491015482565b8181018281101561086357600080fd5b92915050565b60008380156109095760018416801561088457859250610888565b8392505b50600283046002850494505b84156109035785860286878204146108ab57600080fd5b818101818110156108bb57600080fd5b85900496505060018516156108f85785830283878204141587151516156108e157600080fd5b818101818110156108f157600080fd5b8590049350505b600285049450610894565b5061091f565b838015610919576000925061091d565b8392505b505b509392505050565b81810281158061093f57508282828161093c57fe5b04145b61094857600080fd5b6b033b2e3c9fd0803ce8000000900492915050565b80820360008312801590610972575060008212155b61086357600080fdfea26469706673582212207b7c6d54d08e9f1a33cd15618113f0d770bf0ea008d4de15757afd94f4859dc564736f6c634300060c0033000000000000000000000000e938502439f4a4bda4c7d6484c8b6b22c9cd0042",
        "nonce": "0x1",
        "chainId": "0xaa36a7"
      },
      "additionalContracts": [],
      "isFixedGasLimit": false
    },
    {
      "hash": "0x87002b7a5f0c80cdb739cf73a10382ea379b3f57c53bea618902ac4b70158638",
      "transactionType": "CALL",
      "contractName": "Vat",
      "contractAddress": "0xe938502439f4a4bda4c7d6484c8b6b22c9cd0042",
      "function": "rely(address)",
      "arguments": [
        "0xc62B866a8faA6AEff8B73d55B6F73B64b74e4fAd"
      ],
      "transaction": {
        "from": "0x195a7d8610edd06e0c27c006b6970319133cb19a",
        "to": "0xe938502439f4a4bda4c7d6484c8b6b22c9cd0042",
        "gas": "0x10444",
        "value": "0x0",
        "input": "0x65fae35e000000000000000000000000c62b866a8faa6aeff8b73d55b6f73b64b74e4fad",
        "nonce": "0x2",
        "chainId": "0xaa36a7"
      },
      "additionalContracts": [],
      "isFixedGasLimit": false
    },
    {
      "hash": "0x1ba5de2132787848ca333fd8fd3a23107b208b994f1248b6927ea45c051e66f8",
      "transactionType": "CALL",
      "contractName": "Vat",
      "contractAddress": "0xe938502439f4a4bda4c7d6484c8b6b22c9cd0042",
      "function": "init(bytes32)",
      "arguments": [
        "0x4554482d41000000000000000000000000000000000000000000000000000000"
      ],
      "transaction": {
        "from": "0x195a7d8610edd06e0c27c006b6970319133cb19a",
        "to": "0xe938502439f4a4bda4c7d6484c8b6b22c9cd0042",
        "gas": "0xf84c",
        "value": "0x0",
        "input": "0x3b6631954554482d41000000000000000000000000000000000000000000000000000000",
        "nonce": "0x3",
        "chainId": "0xaa36a7"
      },
      "additionalContracts": [],
      "isFixedGasLimit": false
    },
    {
      "hash": "0xd4a49a6af381fbff2bc1128bfdd02b9232ed4f09b3026fb4317b50a244ffe105",
      "transactionType": "CALL",
      "contractName": "Jug",
      "contractAddress": "0xc62b866a8faa6aeff8b73d55b6f73b64b74e4fad",
      "function": "init(bytes32)",
      "arguments": [
        "0x4554482d41000000000000000000000000000000000000000000000000000000"
      ],
      "transaction": {
        "from": "0x195a7d8610edd06e0c27c006b6970319133cb19a",
        "to": "0xc62b866a8faa6aeff8b73d55b6f73b64b74e4fad",
        "gas": "0x18488",
        "value": "0x0",
        "input": "0x3b6631954554482d41000000000000000000000000000000000000000000000000000000",
        "nonce": "0x4",
        "chainId": "0xaa36a7"
      },
      "additionalContracts": [],
      "isFixedGasLimit": false
    },
    {
      "hash": "0x3e554b0b2026287d4aa1ccc780fac9d067cf1b02552352e9bd5a40c800251176",
      "transactionType": "CALL",
      "contractName": "Vat",
      "contractAddress": "0xe938502439f4a4bda4c7d6484c8b6b22c9cd0042",
      "function": "init(bytes32)",
      "arguments": [
        "0x4554482d42000000000000000000000000000000000000000000000000000000"
      ],
      "transaction": {
        "from": "0x195a7d8610edd06e0c27c006b6970319133cb19a",
        "to": "0xe938502439f4a4bda4c7d6484c8b6b22c9cd0042",
        "gas": "0xf84c",
        "value": "0x0",
        "input": "0x3b6631954554482d42000000000000000000000000000000000000000000000000000000",
        "nonce": "0x5",
        "chainId": "0xaa36a7"
      },
      "additionalContracts": [],
      "isFixedGasLimit": false
    },
    {
      "hash": "0xc0952b8a3e9f79e696051e1cb579bfd1e6715f0d755da37188edf27bfaf80c89",
      "transactionType": "CALL",
      "contractName": "Jug",
      "contractAddress": "0xc62b866a8faa6aeff8b73d55b6f73b64b74e4fad",
      "function": "init(bytes32)",
      "arguments": [
        "0x4554482d42000000000000000000000000000000000000000000000000000000"
      ],
      "transaction": {
        "from": "0x195a7d8610edd06e0c27c006b6970319133cb19a",
        "to": "0xc62b866a8faa6aeff8b73d55b6f73b64b74e4fad",
        "gas": "0x18488",
        "value": "0x0",
        "input": "0x3b6631954554482d42000000000000000000000000000000000000000000000000000000",
        "nonce": "0x6",
        "chainId": "0xaa36a7"
      },
      "additionalContracts": [],
      "isFixedGasLimit": false
    },
    {
      "hash": "0xc60f73b5fdf89516bbe4e6b52455d636c3885c7541755cab0b3fa66c881d84c9",
      "transactionType": "CALL",
      "contractName": "Vat",
      "contractAddress": "0xe938502439f4a4bda4c7d6484c8b6b22c9cd0042",
      "function": "init(bytes32)",
      "arguments": [
        "0x4554482d43000000000000000000000000000000000000000000000000000000"
      ],
      "transaction": {
        "from": "0x195a7d8610edd06e0c27c006b6970319133cb19a",
        "to": "0xe938502439f4a4bda4c7d6484c8b6b22c9cd0042",
        "gas": "0xf84c",
        "value": "0x0",
        "input": "0x3b6631954554482d43000000000000000000000000000000000000000000000000000000",
        "nonce": "0x7",
        "chainId": "0xaa36a7"
      },
      "additionalContracts": [],
      "isFixedGasLimit": false
    },
    {
      "hash": "0xc0e1792e6410753e0834e5ce434565feb5be213fecef8e871a420f4ae72e2a29",
      "transactionType": "CALL",
      "contractName": "Jug",
      "contractAddress": "0xc62b866a8faa6aeff8b73d55b6f73b64b74e4fad",
      "function": "init(bytes32)",
      "arguments": [
        "0x4554482d43000000000000000000000000000000000000000000000000000000"
      ],
      "transaction": {
        "from": "0x195a7d8610edd06e0c27c006b6970319133cb19a",
        "to": "0xc62b866a8faa6aeff8b73d55b6f73b64b74e4fad",
        "gas": "0x18488",
        "value": "0x0",
        "input": "0x3b6631954554482d43000000000000000000000000000000000000000000000000000000",
        "nonce": "0x8",
        "chainId": "0xaa36a7"
      },
      "additionalContracts": [],
      "isFixedGasLimit": false
    },
    {
      "hash": "0xc7a1c08c7b75af61cc67bf05c4e68e4214725834790a4b8c7e84082b5ac03a95",
      "transactionType": "CALL",
      "contractName": "Vat",
      "contractAddress": "0xe938502439f4a4bda4c7d6484c8b6b22c9cd0042",
      "function": "rely(address)",
      "arguments": [
        "0x4B5B12AC1bC588438Dcb08c28049e0956A589f0b"
      ],
      "transaction": {
        "from": "0x195a7d8610edd06e0c27c006b6970319133cb19a",
        "to": "0xe938502439f4a4bda4c7d6484c8b6b22c9cd0042",
        "gas": "0x10444",
        "value": "0x0",
        "input": "0x65fae35e0000000000000000000000004b5b12ac1bc588438dcb08c28049e0956a589f0b",
        "nonce": "0x9",
        "chainId": "0xaa36a7"
      },
      "additionalContracts": [],
      "isFixedGasLimit": false
    },
    {
      "hash": "0xf878bffcbc840117525c8e0c9b7004f058eb41ae2e0d8b79320231c721ed1532",
      "transactionType": "CALL",
      "contractName": "Jug",
      "contractAddress": "0xc62b866a8faa6aeff8b73d55b6f73b64b74e4fad",
      "function": "rely(address)",
      "arguments": [
        "0x4B5B12AC1bC588438Dcb08c28049e0956A589f0b"
      ],
      "transaction": {
        "from": "0x195a7d8610edd06e0c27c006b6970319133cb19a",
        "to": "0xc62b866a8faa6aeff8b73d55b6f73b64b74e4fad",
        "gas": "0xf873",
        "value": "0x0",
        "input": "0x65fae35e0000000000000000000000004b5b12ac1bc588438dcb08c28049e0956a589f0b",
        "nonce": "0xa",
        "chainId": "0xaa36a7"
      },
      "additionalContracts": [],
      "isFixedGasLimit": false
    }
  ],
  "receipts": [
    {
      "status": "0x1",
      "cumulativeGasUsed": "0x13017ea",
      "logs": [],
      "logsBloom": "0x00000000000000000000000000000000000000000000000000000000000000000000000000000000000000000000000000000000000000000000000000000000000000000000000000000000000000000000000000000000000000000000000000000000000000000000000000000000000000000000000000000000000000000000000000000000000000000000000000000000000000000000000000000000000000000000000000000000000000000000000000000000000000000000000000000000000000000000000000000000000000000000000000000000000000000000000000000000000000000000000000000000000000000000000000000000",
      "type": "0x2",
      "transactionHash": "0x799c5796b77be3a4143153700111a784bba34077af24b18e6fe5e4d62e9513ce",
      "transactionIndex": "0xaf",
      "blockHash": "0xe4141d38e391bf975bbaef0a30ea79ab890380bc76615fe213d4524a4a99667e",
      "blockNumber": "0x789290",
      "gasUsed": "0x189659",
      "effectiveGasPrice": "0x790acc3b",
      "from": "0x195a7d8610edd06e0c27c006b6970319133cb19a",
      "to": null,
      "contractAddress": "0xe938502439f4a4bda4c7d6484c8b6b22c9cd0042"
    },
    {
      "status": "0x1",
      "cumulativeGasUsed": "0xaa1864",
      "logs": [],
      "logsBloom": "0x00000000000000000000000000000000000000000000000000000000000000000000000000000000000000000000000000000000000000000000000000000000000000000000000000000000000000000000000000000000000000000000000000000000000000000000000000000000000000000000000000000000000000000000000000000000000000000000000000000000000000000000000000000000000000000000000000000000000000000000000000000000000000000000000000000000000000000000000000000000000000000000000000000000000000000000000000000000000000000000000000000000000000000000000000000000",
      "type": "0x2",
      "transactionHash": "0xce48938dacc5918bb1b055313c387cc2fa8e7f83b82993876411ea64f66f1fbf",
      "transactionIndex": "0x58",
      "blockHash": "0x26a17c743c6d2ab8fcd21e651366d6d74dfd65093d4c42ac90b9c10c25208dca",
      "blockNumber": "0x789291",
      "gasUsed": "0x9b15b",
      "effectiveGasPrice": "0x827dc3ac",
      "from": "0x195a7d8610edd06e0c27c006b6970319133cb19a",
      "to": null,
      "contractAddress": "0xc62b866a8faa6aeff8b73d55b6f73b64b74e4fad"
    },
    {
      "status": "0x1",
      "cumulativeGasUsed": "0xaaf3d4",
      "logs": [],
      "logsBloom": "0x00000000000000000000000000000000000000000000000000000000000000000000000000000000000000000000000000000000000000000000000000000000000000000000000000000000000000000000000000000000000000000000000000000000000000000000000000000000000000000000000000000000000000000000000000000000000000000000000000000000000000000000000000000000000000000000000000000000000000000000000000000000000000000000000000000000000000000000000000000000000000000000000000000000000000000000000000000000000000000000000000000000000000000000000000000000",
      "type": "0x2",
      "transactionHash": "0x87002b7a5f0c80cdb739cf73a10382ea379b3f57c53bea618902ac4b70158638",
      "transactionIndex": "0x66",
      "blockHash": "0x4321c8c61aa7d42754d73f5c94ccb2ca019da22b598adc94a6741127d9df3f84",
      "blockNumber": "0x789292",
      "gasUsed": "0xbc6f",
      "effectiveGasPrice": "0x7eb916f5",
      "from": "0x195a7d8610edd06e0c27c006b6970319133cb19a",
      "to": "0xe938502439f4a4bda4c7d6484c8b6b22c9cd0042",
      "contractAddress": null
    },
    {
      "status": "0x1",
      "cumulativeGasUsed": "0xab8adb",
      "logs": [],
      "logsBloom": "0x00000000000000000000000000000000000000000000000000000000000000000000000000000000000000000000000000000000000000000000000000000000000000000000000000000000000000000000000000000000000000000000000000000000000000000000000000000000000000000000000000000000000000000000000000000000000000000000000000000000000000000000000000000000000000000000000000000000000000000000000000000000000000000000000000000000000000000000000000000000000000000000000000000000000000000000000000000000000000000000000000000000000000000000000000000000",
      "type": "0x2",
      "transactionHash": "0x1ba5de2132787848ca333fd8fd3a23107b208b994f1248b6927ea45c051e66f8",
      "transactionIndex": "0x70",
      "blockHash": "0x4683a112ae981b0f1dd96954f9fe3bd04246978780eda4af56f572bfb0e7ac1d",
      "blockNumber": "0x789293",
      "gasUsed": "0xb3c4",
      "effectiveGasPrice": "0x7d2d5529",
      "from": "0x195a7d8610edd06e0c27c006b6970319133cb19a",
      "to": "0xe938502439f4a4bda4c7d6484c8b6b22c9cd0042",
      "contractAddress": null
    },
    {
      "status": "0x1",
      "cumulativeGasUsed": "0x12fc976",
      "logs": [],
      "logsBloom": "0x00000000000000000000000000000000000000000000000000000000000000000000000000000000000000000000000000000000000000000000000000000000000000000000000000000000000000000000000000000000000000000000000000000000000000000000000000000000000000000000000000000000000000000000000000000000000000000000000000000000000000000000000000000000000000000000000000000000000000000000000000000000000000000000000000000000000000000000000000000000000000000000000000000000000000000000000000000000000000000000000000000000000000000000000000000000",
      "type": "0x2",
      "transactionHash": "0xd4a49a6af381fbff2bc1128bfdd02b9232ed4f09b3026fb4317b50a244ffe105",
      "transactionIndex": "0x74",
      "blockHash": "0x46f7118f7c0a0fd6a50fb690acd5ed2389c9ae180920cf092203b35e4b95a2ca",
      "blockNumber": "0x789294",
      "gasUsed": "0x109aa",
      "effectiveGasPrice": "0x79bc5cb1",
      "from": "0x195a7d8610edd06e0c27c006b6970319133cb19a",
      "to": "0xc62b866a8faa6aeff8b73d55b6f73b64b74e4fad",
      "contractAddress": null
    },
    {
      "status": "0x1",
      "cumulativeGasUsed": "0x97c55e",
      "logs": [],
      "logsBloom": "0x00000000000000000000000000000000000000000000000000000000000000000000000000000000000000000000000000000000000000000000000000000000000000000000000000000000000000000000000000000000000000000000000000000000000000000000000000000000000000000000000000000000000000000000000000000000000000000000000000000000000000000000000000000000000000000000000000000000000000000000000000000000000000000000000000000000000000000000000000000000000000000000000000000000000000000000000000000000000000000000000000000000000000000000000000000000",
      "type": "0x2",
      "transactionHash": "0x3e554b0b2026287d4aa1ccc780fac9d067cf1b02552352e9bd5a40c800251176",
      "transactionIndex": "0x52",
      "blockHash": "0x08e84938e190ba9effd81cb9b198a1ce2da567d71991f0b4485428c5acfd1dd5",
      "blockNumber": "0x789295",
      "gasUsed": "0xb3c4",
      "effectiveGasPrice": "0x82c4ac1e",
      "from": "0x195a7d8610edd06e0c27c006b6970319133cb19a",
      "to": "0xe938502439f4a4bda4c7d6484c8b6b22c9cd0042",
      "contractAddress": null
    },
    {
      "status": "0x1",
      "cumulativeGasUsed": "0x13abcfe",
      "logs": [],
      "logsBloom": "0x00000000000000000000000000000000000000000000000000000000000000000000000000000000000000000000000000000000000000000000000000000000000000000000000000000000000000000000000000000000000000000000000000000000000000000000000000000000000000000000000000000000000000000000000000000000000000000000000000000000000000000000000000000000000000000000000000000000000000000000000000000000000000000000000000000000000000000000000000000000000000000000000000000000000000000000000000000000000000000000000000000000000000000000000000000000",
      "type": "0x2",
      "transactionHash": "0xc0952b8a3e9f79e696051e1cb579bfd1e6715f0d755da37188edf27bfaf80c89",
      "transactionIndex": "0x9f",
      "blockHash": "0xde5b01846090d8669c29d1ec48147bd9d9172f6429fa3b1e2400b7dce35497bd",
      "blockNumber": "0x789297",
      "gasUsed": "0x109aa",
      "effectiveGasPrice": "0x71e617b8",
      "from": "0x195a7d8610edd06e0c27c006b6970319133cb19a",
      "to": "0xc62b866a8faa6aeff8b73d55b6f73b64b74e4fad",
      "contractAddress": null
    },
    {
      "status": "0x1",
      "cumulativeGasUsed": "0xec41df",
      "logs": [],
      "logsBloom": "0x00000000000000000000000000000000000000000000000000000000000000000000000000000000000000000000000000000000000000000000000000000000000000000000000000000000000000000000000000000000000000000000000000000000000000000000000000000000000000000000000000000000000000000000000000000000000000000000000000000000000000000000000000000000000000000000000000000000000000000000000000000000000000000000000000000000000000000000000000000000000000000000000000000000000000000000000000000000000000000000000000000000000000000000000000000000",
      "type": "0x2",
      "transactionHash": "0xc60f73b5fdf89516bbe4e6b52455d636c3885c7541755cab0b3fa66c881d84c9",
      "transactionIndex": "0x6d",
      "blockHash": "0x3f35f6f5bf53d5a19727665089edbf8b95b05080714f4f9567693bec26359b5e",
      "blockNumber": "0x789298",
      "gasUsed": "0xb3c4",
      "effectiveGasPrice": "0x775cde3c",
      "from": "0x195a7d8610edd06e0c27c006b6970319133cb19a",
      "to": "0xe938502439f4a4bda4c7d6484c8b6b22c9cd0042",
      "contractAddress": null
    },
    {
      "status": "0x1",
      "cumulativeGasUsed": "0x11031da",
      "logs": [],
      "logsBloom": "0x00000000000000000000000000000000000000000000000000000000000000000000000000000000000000000000000000000000000000000000000000000000000000000000000000000000000000000000000000000000000000000000000000000000000000000000000000000000000000000000000000000000000000000000000000000000000000000000000000000000000000000000000000000000000000000000000000000000000000000000000000000000000000000000000000000000000000000000000000000000000000000000000000000000000000000000000000000000000000000000000000000000000000000000000000000000",
      "type": "0x2",
      "transactionHash": "0xc0e1792e6410753e0834e5ce434565feb5be213fecef8e871a420f4ae72e2a29",
      "transactionIndex": "0x99",
      "blockHash": "0x33bebd7e0471ebc5568897f8c8e00eb1f26a90dfad3b832a132e49714aef713f",
      "blockNumber": "0x78929d",
      "gasUsed": "0x109aa",
      "effectiveGasPrice": "0x62674278",
      "from": "0x195a7d8610edd06e0c27c006b6970319133cb19a",
      "to": "0xc62b866a8faa6aeff8b73d55b6f73b64b74e4fad",
      "contractAddress": null
    },
    {
      "status": "0x1",
      "cumulativeGasUsed": "0xb45bf0",
      "logs": [],
      "logsBloom": "0x00000000000000000000000000000000000000000000000000000000000000000000000000000000000000000000000000000000000000000000000000000000000000000000000000000000000000000000000000000000000000000000000000000000000000000000000000000000000000000000000000000000000000000000000000000000000000000000000000000000000000000000000000000000000000000000000000000000000000000000000000000000000000000000000000000000000000000000000000000000000000000000000000000000000000000000000000000000000000000000000000000000000000000000000000000000",
      "type": "0x2",
      "transactionHash": "0xc7a1c08c7b75af61cc67bf05c4e68e4214725834790a4b8c7e84082b5ac03a95",
      "transactionIndex": "0x6b",
      "blockHash": "0x9951c11482e326bc39e9126803d10d7eaa55749e9d1b16183abe92ca664c4a6b",
      "blockNumber": "0x78929e",
      "gasUsed": "0xbc6f",
      "effectiveGasPrice": "0x6e5673d6",
      "from": "0x195a7d8610edd06e0c27c006b6970319133cb19a",
      "to": "0xe938502439f4a4bda4c7d6484c8b6b22c9cd0042",
      "contractAddress": null
    },
    {
      "status": "0x1",
      "cumulativeGasUsed": "0xa82295",
      "logs": [],
      "logsBloom": "0x00000000000000000000000000000000000000000000000000000000000000000000000000000000000000000000000000000000000000000000000000000000000000000000000000000000000000000000000000000000000000000000000000000000000000000000000000000000000000000000000000000000000000000000000000000000000000000000000000000000000000000000000000000000000000000000000000000000000000000000000000000000000000000000000000000000000000000000000000000000000000000000000000000000000000000000000000000000000000000000000000000000000000000000000000000000",
      "type": "0x2",
      "transactionHash": "0xf878bffcbc840117525c8e0c9b7004f058eb41ae2e0d8b79320231c721ed1532",
      "transactionIndex": "0x65",
      "blockHash": "0x10ce84782e03ef22518b97d869b88213b35e7b30a2958c0228b0368bacdcc708",
      "blockNumber": "0x78929f",
      "gasUsed": "0xb3e0",
      "effectiveGasPrice": "0x6faa39fe",
      "from": "0x195a7d8610edd06e0c27c006b6970319133cb19a",
      "to": "0xc62b866a8faa6aeff8b73d55b6f73b64b74e4fad",
      "contractAddress": null
    }
  ],
  "libraries": [],
  "pending": [],
  "returns": {},
  "timestamp": 1741972088,
  "chain": 11155111,
  "commit": "7bdb056"
}